:020000040800F2
:10000000000002204D0200089D0200089D02000829
:100010009D0200089D0200089D02000800000000EB
:100020000000000000000000000000009D02000829
:100030009D020008000000009D0200089D020008CB
:100040009D0200089D0200089D0200089D02000814
:100050009D0200089D0200089D0200089D02000804
:100060009D0200089D0200089D0200089D020008F4
:100070009D0200089D0200089D0200089D020008E4
:100080009D0200089D0200089D020008000000007B
:100090000000000000000000000000009D020008B9
:1000A0009D0200089D0200089D0200089D020008B4
:1000B0009D0200089D0200089D0200089D020008A4
:1000C0009D0200089D0200089D0200089D02000894
:1000D0009D0200089D0200089D020008000000002B
:1000E0009D0200089D0200089D020008000000001B
:1000F0000000000000000000000000009D02000859
:10010000000000009D0200089D0200089D020008FA
:1001100000000000000000000000000000000000DF
:100120009D0200089D0200089D0200089D02000833
:100130009D02000800000000000000000000000018
:100140000000000000000000000000009D02000808
:100150009D0200089D0200089D0200089D02000803
:100160009D0200089D020008000000000000000041
:10017000000000000000000000000000000000007F
:10018000000000009D0200080000000000000000C8
:080190009D0200089D02000819
:1001980010B5054C237833B9044B13B10448AFF3B9
:1001A80000800123237010BD000000200000000023
:1001B800E802000808B5034B1BB103490348AFF335
:1001C800008008BD0000000004000020E8020008CC
:1001D800034AD2F8883043F47003C2F88830704775
:1001E80000ED00E008B500F009F8034B4FF00052AD
:1001F800C3F81828F9E700BF000002400F4AD2F8F8
:10020800303843F00403C2F830380D4BD3F80028D7
:1002180022F00C02C3F8002842F08062C3F80028DC
:10022800D3F8042822F40052C3F80428D3F80C2881
:1002380022F00C02C3F80C28704700BF00300240BF
:1002480000000240DFF834D00D480E490E4A002362
:1002580002E0D458C4500433C4188C42F9D30B4A72
:100268000B4C002301E013600432A242FBD3FFF7DA
:10027800AFFF00F011F8FFF7B5FF7047000002204C
:1002880000000020000000200803000800000020F3
:100298001C000020FEE7000070B50D4D0D4C641BDE
:1002A800A4100026A64209D10B4D0C4C00F018F8FA
:1002B800641BA4100026A64205D170BD55F8043B66
:1002C80098470136EEE755F8043B98470136F2E7C0
:1002D80000030008000300080003000804030008E6
:1002E800F8B500BFF8BC08BC9E467047F8B500BF1B
:0802F800F8BC08BC9E467047EB
:04030000BD01000833
:040304009901000853
:040000050800024DA0
:00000001FF
