:020000040800F2
:10000000000002206D040008BD040008BD040008C3
:10001000BD040008BD040008BD0400080000000085
:10002000000000000000000000000000BD04000807
:10003000BD04000800000000BD040008BD04000865
:10004000BD040008BD040008BD040008BD0400088C
:10005000BD040008BD040008BD040008BD0400087C
:10006000BD040008BD040008BD040008BD0400086C
:10007000BD040008BD040008BD040008BD0400085C
:10008000BD040008BD040008BD0400080000000015
:10009000000000000000000000000000BD04000897
:1000A000BD040008BD040008BD040008BD0400082C
:1000B000BD040008BD040008BD040008BD0400081C
:1000C000BD040008BD040008BD040008BD0400080C
:1000D000BD040008BD040008BD04000800000000C5
:1000E000BD040008BD040008BD04000800000000B5
:1000F000000000000000000000000000BD04000837
:1001000000000000BD040008BD040008BD04000894
:1001100000000000000000000000000000000000DF
:10012000BD040008BD040008BD040008BD040008AB
:10013000BD040008000000000000000000000000F6
:10014000000000000000000000000000BD040008E6
:10015000BD040008BD040008BD040008BD0400087B
:10016000BD040008BD0400080000000000000000FD
:10017000000000000000000000000000000000007F
:1001800000000000BD0400080000000000000000A6
:08019000BD040008BD040008D5
:1001980010B5054C237833B9044B13B10448AFF3B9
:1001A80000800123237010BD000000200000000023
:1001B8000805000808B5034B1BB103490348AFF312
:1001C800008008BD000000000400002008050008A9
:1001D800034AD2F8883043F47003C2F88830704775
:1001E80000ED00E038B50123164A1370164D2B7048
:1001F800164C0823C4F81834642000F003F91023BF
:10020800C4F81834642000F0FDF82023C4F818342A
:10021800642000F0F7F84023C4F81834642000F094
:10022800F1F88023C4F81834642000F0EBF84FF498
:100238008073C4F81834642000F0E4F800232B70AD
:1002480038BD00BF1C0000201D0000200000024037
:1002580070B50026184B1E70184D01232B70184CD2
:100268004FF40023C4F81834642000F0CBF84FF49E
:100278008013C4F81834642000F0C4F84FF4001355
:10028800C4F81834642000F0BDF84FF48003C4F8B3
:100298001834642000F0B6F84FF40003C4F818349A
:1002A800642000F0AFF84FF08073C4F8183464206D
:1002B80000F0A8F82E7070BD1C0000201D00002062
:1002C8000000024038B51A4B1B7803F0FF0493B1C5
:1002D800002424E0174D4FF4FC73C5F8183464204B
:1002E80000F090F84FF0FC73C5F81834642000F063
:1002F80089F80134E4B2022CECD938BD0D4D4FF425
:10030800FC73C5F81834642000F07CF84FF0FC73D7
:10031800C5F81834642000F075F80134E4B2022CF2
:10032800ECD9044B4FF4FC72C3F81824E5E700BF7E
:100338001C0000200000024008B500F06FF82E4BAA
:100348001B6913F0010F02D12C4B1B783BB32A4BCE
:100358001B6913F0020F03D1284B1B78002B34D0F4
:10036800254B1B6913F0040FE9D1244B1B78002B94
:10037800E5D1322000F046F81F4B1B6913F0040F3B
:10038800DDD11F4A1378B3FA83F35B091370FFF7C3
:1003980099FF194B1B6913F0040FFAD0CFE73220ED
:1003A80000F030F8144B1B6913F0010FCFD1144B38
:1003B8001B783BB9FFF716FF0F4B1B6913F0010FB2
:1003C800FAD0C4E7FFF744FFF6E7322000F01AF846
:1003D800094B1B6913F0020FC2D1094B1B783BB9BB
:1003E800FFF736FF044B1B6913F0020FFAD0B7E78B
:1003F800FFF7F8FEF6E700BF000002401D000020EE
:100408001E000020002201E000BF01324FF47A53A1
:1004180000FB03F39342F7D8704700000E4AD2F866
:10042800303843F00101C2F8301843F00303C2F832
:1004380030380A4B0022C3F800240949C3F80014D5
:100448005A60C3F80424DA6842F01502DA604FF003
:10045800FC72C3F8182470470030024000000240C4
:1004680040550100DFF834D00D480E490E4A0023EC
:1004780002E0D458C4500433C4188C42F9D30B4A50
:100488000B4C002301E013600432A242FBD3FFF7B8
:100498009FFE00F011F8FFF74FFF704700000220A1
:1004A80000000020000000202805000800000020AF
:1004B80020000020FEE7000070B50D4D0D4C641BB8
:1004C800A4100026A64209D10B4D0C4C00F018F8D8
:1004D800641BA4100026A64205D170BD55F8043B44
:1004E80098470136EEE755F8043B98470136F2E79E
:1004F800200500082005000820050008240500083C
:10050800F8B500BFF8BC08BC9E467047F8B500BFF8
:08051800F8BC08BC9E467047C8
:04052000BD01000811
:040524009901000831
:040000050800046D7E
:00000001FF
