:020000040800F2
:100000000000022029060008790600087906000889
:10001000790600087906000879060008000000004B
:100020000000000000000000000000007906000849
:10003000790600080000000079060008790600082B
:100040007906000879060008790600087906000894
:100050007906000879060008790600087906000884
:100060007906000879060008790600087906000874
:100070007906000879060008790600087906000864
:1000800079060008790600087906000800000000DB
:1000900000000000000000000000000079060008D9
:1000A0007906000879060008790600087906000834
:1000B0007906000879060008790600087906000824
:1000C0007906000879060008790600087906000814
:1000D000790600087906000879060008000000008B
:1000E000790600087906000879060008000000007B
:1000F0000000000000000000000000007906000879
:10010000000000007906000879060008790600085A
:1001100000000000000000000000000000000000DF
:1001200079060008790600087906000879060008B3
:100130007906000800000000000000000000000038
:100140000000000000000000000000007906000828
:100150007906000879060008790600087906000883
:100160007906000879060008000000000000000081
:10017000000000000000000000000000000000007F
:1001800000000000790600080000000000000000E8
:08019000790600087906000859
:1001980010B5054C237833B9044B13B10448AFF3B9
:1001A80000800123237010BD000000200000000023
:1001B800C406000808B5034B1BB103490348AFF355
:1001C800008008BD0000000004000020C4060008EC
:1001D800034AD2F8883043F47003C2F88830704775
:1001E80000ED00E0052808D8DFE800F0030C111640
:1001F8001B20114B0822C3F81824104B034401227A
:100208001A7570470C4B1022C3F81824F5E70A4BEF
:100218002022C3F81824F0E7074B4022C3F818241B
:10022800EBE7054B8022C3F81824E6E7024B4FF4AE
:100238008072C3F81824E0E7000002403400002070
:10024800052809D8DFE800F0030D13191F25144B02
:100258004FF40022C3F81824124B034400221A75E5
:1002680070470F4B4FF48012C3F81824F4E70C4B77
:100278004FF40012C3F81824EEE7094B4FF480023C
:10028800C3F81824E8E7064B4FF40002C3F8182413
:10029800E2E7034B4FF08072C3F81824DCE700BF95
:1002A800000002403400002010B5002404E020467D
:1002B800FFF7C6FF0134E4B2052CF8D910BD10B51C
:1002C800002404E02046FFF78DFF0134E4B2052C3A
:1002D800F8D910BD70B504460D46164600F060F911
:1002E80003465CB1287828B13068181A142818D841
:1002F800002015E001222A70336011E02A7862B1EB
:100308003268821A142A08D900222A703068181A0A
:10031800B0F57A7F07D9032002E000232B7020462E
:1003280070BD0120FCE70220FAE7000070B500F07C
:1003380037F91C4BDB68C31A312B32D90646194BE7
:10034800D860002416E06422174B53F82530F31ABE
:1003580093420DD9154BD3F81824E91C01238B407F
:100368001A421AD02046FFF76BFF0F4B43F825605F
:100378000134E4B2052C14D825460A4B23441B7DCE
:10038800002BF5D0074B23445B78012BDBD0022BE5
:1003980001D13222D8E7FA22D6E72046FFF722FF1A
:1003A800E3E770BD340000201C000020000002407C
:1003B80008B50A4A0023137013725372D36013618D
:1003C80006E0064A1A440021517011750133DBB268
:1003D800052BF6D9FFF768FF08BD00BF34000020E1
:1003E800F8B500F0F5F8FFF7E3FF4BE0614B1B7839
:1003F800013BDBB2012B0DD85E4B187A0130C0B23D
:10040800187205280ED906280FD05A4B00221A72E6
:100418001A7063E0574B01221A7000221A72FFF714
:1004280043FF5BE0FFF7DEFE58E0FFF73DFF514B6F
:1004380002221A7052E04F4B1B78033BDBB2012BB0
:100448000DD84C4B187A0130C0B2187205280ED955
:1004580006280FD0474B00221A721A7040E0454B0D
:1004680003221A7000221A72FFF729FF38E0FFF7FB
:10047800E7FE35E0FFF723FF3E4B04221A702FE01A
:10048800032C50D000F092F8FFF750FF3A4F3B6929
:100498003A4C13F0010F2246A4F106010CBF0120CB
:1004A8000020FFF717FF06463B6913F0020F2246AC
:1004B800A4F105010CBF01200020FFF70BFF054642
:1004C8003B6913F0040F2246A4F104010CBF01207C
:1004D8000020FFF7FFFE0446022E87D0022DAAD087
:1004E800022CCDD1234B587A0028C9D00138C5B287
:1004F800194629444B780133214A82FB030202EB57
:1005080042029B1A4B702846FFF79AFE642000F0BF
:100518003BF82846FFF766FE642000F035F82846C9
:10052800FFF78EFEACE713494A7A0132154B83FB7D
:10053800020313449B10C3EBC303D31ADBB24B7201
:10054800002B9FD0013BDCB2FFF7AEFE00250DE08B
:100558002046FFF747FEC82000F016F82046FFF7B0
:100568006FFEC82000F010F80135EDB2022DEFD96A
:1005780088E700BF3400002000000240540000203B
:100588005655555593244992002201E000BF013287
:100598004FF47A5300FB03F39342F7D870470000F7
:1005A800014B1868704700BF5C000020064A1368BA
:1005B80001331360362B06D9044A136801331360DC
:1005C800014B00221A607047580000205C00002090
:1005D800104AD2F8303843F00101C2F8301843F01D
:1005E8000303C2F830380C4B0022C3F800240B492F
:1005F800C3F800144031C3F800145A60C3F8042447
:10060800DA6842F01502DA604FF0FC72C3F8182479
:10061800704700BF00300240000002400055010052
:10062800DFF834D00D480E490E4A002302E0D458B2
:10063800C4500433C4188C42F9D30B4A0B4C002322
:1006480001E013600432A242FBD3FFF7C1FD00F0C2
:1006580011F8FFF7C5FE70470000022000000020D7
:1006680000000020E40600080000002060000020D0
:10067800FEE7000070B50D4D0D4C641BA41000265C
:10068800A64209D10B4D0C4C00F018F8641BA410BD
:100698000026A64205D170BD55F8043B984701369F
:1006A800EEE755F8043B98470136F2E7DC06000808
:1006B800DC060008DC060008E0060008F8B500BF04
:1006C800F8BC08BC9E467047F8B500BFF8BC08BC2B
:0406D8009E46704783
:0406DC00BD01000854
:0406E0009901000874
:0400000508000629C0
:00000001FF
